:020000040800F2
:1000000000200020451F0008750B0008770B000832
:1000100000000000000000000000000000000000E0
:10002000000000000000000000000000790B000844
:1000300000000000000000007B0B00087D0B0008A2
:10004000951F0008951F0008951F0008951F0008C0
:10005000951F000819080008951F0008951F000843
:10006000951F0008951F0008951F0008951F0008A0
:10007000F5080008951F0008951F0008951F000847
:10008000951F0008951F000800000000951F00083C
:10009000951F0008951F0008951F0008951F000870
:1000A000951F0008951F0008951F0008951F000860
:1000B000951F000800000000951F000800000000C8
:1000C00010B5064C2378002B07D1054B002B02D02E
:1000D000044800E000BF0123237010BD740000201D
:1000E00000000000E4280008044B10B5002B03D0EA
:1000F0000349044800E000BF10BDC04600000000F6
:1001000078000020E428000803B471464908400044
:100110004900095E49008E4403BC70470022430831
:100120008B4274D303098B425FD3030A8B4244D3BF
:10013000030B8B4228D3030C8B420DD3FF22090201
:1001400012BA030C8B4202D31212090265D0030BC0
:100150008B4219D300E0090AC30B8B4201D3CB03B6
:10016000C01A5241830B8B4201D38B03C01A5241F8
:10017000430B8B4201D34B03C01A5241030B8B42FA
:1001800001D30B03C01A5241C30A8B4201D3CB02E5
:10019000C01A5241830A8B4201D38B02C01A5241CA
:1001A000430A8B4201D34B02C01A5241030A8B42CD
:1001B00001D30B02C01A5241CDD2C3098B4201D3E5
:1001C000CB01C01A524183098B4201D38B01C01A63
:1001D000524143098B4201D34B01C01A52410309DA
:1001E0008B4201D30B01C01A5241C3088B4201D389
:1001F000CB00C01A524183088B4201D38B00C01A36
:10020000524143088B4201D34B00C01A5241411A5C
:1002100000D20146524110467047FFE701B5002069
:1002200000F0F0F802BDC0460029F7D076E770472D
:1002300003460B437FD4002243088B4274D3030947
:100240008B425FD3030A8B4244D3030B8B4228D3E8
:10025000030C8B420DD3FF22090212BA030C8B420E
:1002600002D31212090265D0030B8B4219D300E0AE
:10027000090AC30B8B4201D3CB03C01A5241830B33
:100280008B4201D38B03C01A5241430B8B4201D3E3
:100290004B03C01A5241030B8B4201D30B03C01A0C
:1002A0005241C30A8B4201D3CB02C01A5241830A86
:1002B0008B4201D38B02C01A5241430A8B4201D3B5
:1002C0004B02C01A5241030A8B4201D30B02C01ADF
:1002D0005241CDD2C3098B4201D3CB01C01A524146
:1002E00083098B4201D38B01C01A524143098B42CF
:1002F00001D34B01C01A524103098B4201D30B01B8
:10030000C01A5241C3088B4201D3CB00C01A5241DC
:1003100083088B4201D38B00C01A524143088B42A1
:1003200001D34B00C01A5241411A00D2014652413A
:10033000104670475DE0CA0F00D04942031000D359
:100340004042534000229C4603098B422DD3030AAE
:100350008B4212D3FC22890112BA030A8B420CD3BE
:10036000890192118B4208D3890192118B4204D3E7
:1003700089013AD0921100E08909C3098B4201D367
:10038000CB01C01A524183098B4201D38B01C01AA1
:10039000524143098B4201D34B01C01A5241030918
:1003A0008B4201D30B01C01A5241C3088B4201D3C7
:1003B000CB00C01A524183088B4201D38B00C01A74
:1003C0005241D9D243088B4201D34B00C01A52414B
:1003D000411A00D20146634652415B10104601D3D8
:1003E0004042002B00D54942704763465B1000D362
:1003F000404201B5002000F005F802BD0029F8D008
:1004000016E770477047C046F0B5C64600B58CB0D9
:100410000AAD08220021280001F0E2FD1822002187
:1004200004A801F0DDFD274B59698020C00301437A
:1004300059615A6902400392039A596980208002E7
:10044000014359615A6902400292029A5A69802115
:10045000C9020A435A615B690B400193019B1A4F21
:1004600080239846BB62194A93680F218B4393609F
:100470009022D205D3680C398B4301242343D360E7
:1004800013688B4313600A942C7100266E71AC7153
:10049000280000F02DFC4346049305940696079629
:1004A000089604A9380000F06EFB00220021052008
:1004B00000F0D8FF052001F005F80CB080BCB8466C
:1004C000F0BDC0460010024000040048000001409A
:1004D00082B003004000C0180023019304E0C0462E
:1004E000C046019B01330193019B8342F7D302B0C5
:1004F0007047000070B51420FFF7EAFF0A4CA369AB
:1005000080252D022B43A3611420FFF7E1FFA26990
:1005100080231B061343A3611420FFF7D9FFA369AF
:100520001D43A56170BDC0460008004810B5040019
:10053000454A91698023DB010B43936143B2002B51
:1005400046DB9022D205916980231B060B43936101
:10055000630645D59022D205916980235B010B4348
:100560009361A30644D5394A916980239B000B43CC
:100570009361E30643D5354A916980235B000B43C1
:100580009361FFF7B7FF230740D59022D205916909
:1005900080231B020B43936163073FD59022D20552
:1005A000916980235B010B439361A3073ED5274AE2
:1005B000916980239B000B439361E3073DD5234A58
:1005C000916980235B000B439361FFF793FF10BD9C
:1005D0009022D205916980231B020B439361B7E7F8
:1005E0009022D205916980235B050B439361B8E7A4
:1005F000164A916980239B040B439361B9E7134A20
:10060000916980235B040B439361BAE79022D20582
:10061000916980231B060B439361BDE79022D205AD
:10062000916980235B050B439361BEE7074A91699B
:1006300080239B040B439361BFE7044A91698023A5
:100640005B040B439361C0E70008004800040048C6
:1006500070B50500002403E0FFF768FF0134E4B241
:10066000285D0028F8D170BD10B50400474A916993
:100670008023DB050B43936143B2002B49DB9022BF
:10068000D205916980231B060B439361630648D50D
:100690009022D205916980235B010B439361A306ED
:1006A00047D53B4A916980239B000B439361E30646
:1006B00046D5374A916980235B000B439361FFF76E
:1006C00019FF230743D59022D205916980231B028D
:1006D0000B439361630742D59022D2059169802331
:1006E0005B010B439361A30741D5294A916980239C
:1006F0009B000B439361E30740D5254A9169802312
:100700005B000B439361FFF7F5FE2248FFF7E0FE25
:1007100010BD9022D205916980231B020B43936187
:10072000B4E79022D205916980235B050B43936166
:10073000B5E7174A916980239B040B439361B6E7A1
:10074000134A916980235B040B439361B7E79022BE
:10075000D205916980231B060B439361BAE790226F
:10076000D205916980235B050B439361BBE7084A7F
:10077000916980239B040B439361BCE7044A916910
:1007800080235B040B439361BDE7C046000800482B
:1007900000040048B80B000010B51B4B59698022BB
:1007A00092020A435A6159698022D2020A435A616D
:1007B0005969802212030A435A619022D2051168B6
:1007C0008223DB050B431360104A1168A023DB0270
:1007D0000B4313600E4A1168A023DB050B43136023
:1007E0000C48FFF775FE3320FFF73EFF3220FFF77E
:1007F0003BFF0C20FFF738FF2820FFF735FF0120D3
:10080000FFF732FF10BDC046001002400004004850
:10081000000800483075000010B500F051FA114B87
:100820001860114B1B68C01A104B1B6898420BD301
:10083000FA22520093420BD0FA22920093420CD03B
:1008400000F03EFA084B1860012000F033FF10BDA5
:10085000064BF532FF321A60F2E7044BF53AFF3AE5
:100860001A60EDE794000020200100200000002025
:1008700010B504000448FFF72BFE0120FFF7F4FE3B
:100880002000FFF7E5FE10BDB80B000010B50B4CC3
:10089000200000F01DFC01214942200000F06AFC0C
:1008A000002805D0054800F043FC054B188810BD12
:1008B000024800F0C3FC024B1880F3E798000020C8
:1008C0002401002010B5074800F0B8FC0004000C1B
:1008D000054B58430549FFF7ABFC80B2044B188029
:1008E00010BDC046980000207FBB0000FF0F000035
:1008F0002401002010B5054C200000F09FFC044BA3
:100900001860200000F0A0FC10BDC0469800002038
:100910009000002072B6FEE700B585B00C220021E1
:1009200001A801F05DFB2148214B036000234360D7
:100930008360C36001220261042141610376437632
:100940008376C376C221FF31C16103629E39FF39CC
:100950004354826200F0FAFA002822D10623019360
:1009600080235B01029380235B05039301A90F4859
:1009700000F0D2FC002816D10D4A916880231B0696
:100980000B4393600A4B9B68002BFBDB084A936880
:1009900001210B439360064B1B68DB07FBD505B0B9
:1009A00000BDFFF7B7FFFFF7B5FFC0469800002076
:1009B0000024014000B58FB0102200210AA801F0E8
:1009C0000FFB0822002108A801F00AFB1C220021CD
:1009D00001A801F005FB2048204B03600023436081
:1009E00083601F4AC2600361836100F0B9FF002881
:1009F00028D180235B010A930AA9174801F0D0F897
:100A0000002821D1144800F0D7FF00281ED1002370
:100A10000893099308A9104801F0D2F9002817D1CA
:100A2000602301930023029303930593082201A9F5
:100A3000094801F031F800280CD1074801F054FAB8
:100A40000FB000BDFFF766FFFFF764FFFFF762FF1F
:100A5000FFF760FFFFF75EFFD800002000040040B2
:100A60007FBB000010B5244A136801218B4313603B
:100A7000214B1B68DB07FBD4204A136801210B4381
:100A800013601E4B1B689B07FBD51C4A1368F8219B
:100A90008B4378390B431360536B7F390B4353639C
:100AA000164B5B6B9B07FBD5144B5A6BF8218A43A3
:100AB00078390A435A635A6870318A435A605A68CF
:100AC0000F490A405A605A6803218A435A600B4B07
:100AD0005B680C221A42FAD10A4801F02DFA032071
:100AE00000F0AAF8002805D1044A536B04218B4377
:100AF000536310BDFFF70EFF0020024000100240BC
:100B0000FFF8FFFF00127A0010B582B000F0BCF8C9
:100B1000FFF7A8FFFFF778FCFFF7FEFEFFF74AFF9D
:100B2000FFF73AFE08210F4801F0CCF880210E486B
:100B300000F0B6FDFFF7AAFE0404240C22000B49C6
:100B400001A801F055FA01A8FFF792FE2000FFF777
:100B5000B9FE044B1B68D863054B186800F0B6F863
:100B6000E4E7C046D800002000040048FC28000844
:100B700000000020FEE7FEE77047704710B500F068
:100B800093F810BD7047F0B5002216E0C6682B0040
:100B90006B435F00FF18FC43A446BE430F695F43ED
:100BA0003E43C6604C68022C27D0046865462C4042
:100BB0004D686B432343036001320C682300D3402C
:100BC00037D00123934025001D401C42F4D04B68D0
:100BD000013B012BDAD883682C006C436600361980
:100BE000B3438E687443234383600C684368A34314
:100BF000CE68744323434360C8E7FF2D0BD8066AD1
:100C00001C006C4365432C01641BA6434C6965437F
:100C100035430562C9E7466A2D0A2C006C436C43D4
:100C200065432C01641BA6434C696543354345620B
:100C3000BBE70020F0BD000010B504000F4B197891
:100C4000FA208000FFF76AFA01000D4B1868FFF7E1
:100C500065FA00F043FC00280DD1032C01D90120D6
:100C60000AE0013000222100404200F0FBFB054B6E
:100C70001C60002000E0012010BDC04608000020DC
:100C8000040000200C00002010B5064A1368102153
:100C90000B4313600320FFF7CFFF01F0C7F80020DC
:100CA00010BDC04600200240034A1168034B1B7868
:100CB0005B1813607047C046280100200800002020
:100CC000014B18687047C0462801002070B5040029
:100CD000FFF7F6FF0500631C02D0044B1B78E418F5
:100CE000FFF7EEFF401BA042FAD370BD08000020C2
:100CF00010B503000079002850D01A68002A57D098
:100D00005879012818D0022820D000280BD00120C3
:100D10009A79002A4BD0022A2CD0032A34D0012AF7
:100D20001ED0012043E023494C6894434C600A687C
:100D30001C6822430A60EBE71E490868904308607C
:100D40004A68186802434A600020E1E719490868C8
:100D500002430A604A68186802434A600020D7E7E5
:100D6000144AD1681C68A143D1601B6891680B4389
:100D700093601CE00F4A91681C68A14391601B6856
:100D8000D1680B43D36012E00A4A91681C68214382
:100D900091601B68D1680B43D36008E0054A116875
:100DA0001C68A1431160196853688B43536010BDE0
:100DB0000020FCE70004014070B5040003689A6855
:100DC000520725D59A68520706D59A68920703D428
:100DD0009A6810210A439A60FFF772FF05002368A2
:100DE0009B685B0712D5FFF76BFF401B0228F6D903
:100DF00023689B685B07F2D5A36B10221343A363A0
:100E0000E36B0F3A1343E363012002E0002000E0AC
:100E1000002070BD70B504000268916803230B4088
:100E2000012B01D0002070BD1368DB0702D4D3680A
:100E30001B0431D5916805230B40012B09D0A36B0E
:100E400010221343A363E36B0F3A1343E3630120C0
:100E5000E9E7936802210B439360236803221A6039
:100E6000FFF72EFF050023689B68DB0712D5FFF70D
:100E700027FF401B0228F6D923689B68DB07F2D5C1
:100E8000A36B10221343A363E36B0F3A1343E36393
:100E90000120C8E70020C6E70020C4E730B583B0D2
:100EA0000400002301930368996803220A40012A81
:100EB00014D09968224A114218D19A6801210A4334
:100EC0009A60204B18682049FFF728F90190019B90
:100ED000002B15D0019B013B0193F8E71A68D2075C
:100EE0002BD4DA681204E4D5002024E0A36B10228E
:100EF0001343A363E36B0F3A1343E36301201AE048
:100F0000FFF7DEFE050023681B68DB0712D4FFF73E
:100F1000D7FE401B0228F6D923681B68DB07F2D4F2
:100F2000A36B10221343A363E36B0F3A1343E363F2
:100F3000012000E0002003B030BD0020FBE7C046E8
:100F4000170000800400002040420F0070B5041E0E
:100F500000D1B4E0836B002B00D180E0A36BDB06F3
:100F600000D5A6E022689168042005000D400842E3
:100F700000D09EE0A16B534B19400633FF33194359
:100F8000A163916801330B40012B6ED0D368182107
:100F90008B43A1680B43D360226813699B009B08B5
:100FA00061680B4313612268D36847490B40D360E3
:100FB000237E9B03627ED2031343A17E4A03134325
:100FC000A26A012A58D0802252011343E2681343D7
:100FD0002269022A52D02B432422A25C52001343DE
:100FE000E27E012A4CD0E269C221FF318A4202D05E
:100FF000216A0A4313432168CA681A43CA60E26A35
:10100000802149058A420DD0012A0BD0022A09D03D
:10101000032A07D0042A05D0052A03D0062A01D0C6
:10102000072A0AD12068416907229143416120685B
:101030004169E56A2A400A4342612268D26823492D
:101040000A409A422BD0A36B12229343023A1343D5
:10105000A363E36B0F3A1343E36301202EE0C36302
:101060003422835400F0FAFE78E71368DB079AD441
:10107000D3681B0497D489E72A00A6E70425AAE7CA
:10108000002903D1802252021343ACE7A26B202136
:101090000A43A263E26B1F390A43E263A3E700231A
:1010A000E363A36B03229343023A1343A363002039
:1010B00004E0A36B10221343A363012070BD012041
:1010C000FCE7C046FDFEFFFF1902FEFFE7FF3F837E
:1010D00010B5040003689B685B0723D43423C35C0A
:1010E000012B21D034230122C254437E012B14D181
:1010F0000020A36B0D4A1A4080235B001343A363B7
:101100000023E3633422A3542368183A1A60226848
:10111000936804210B43936010BDFFF7BFFE0028C6
:10112000FAD1E6E70220F7E70220F5E7FEF0FFFF3D
:1011300010B504003423C35C012B17D034230122E3
:10114000C254FFF739FE002803D034230022E254B2
:1011500010BD2000FFF75EFE0028F6D1A36B044A05
:1011600013400432FF321343A363EEE70220EFE79C
:10117000FEFEFFFFF8B504000E004769082F04D0FB
:101180000368DB68DB0718D40C27FFF799FD05001F
:1011900023681A6817421FD1731CF9D0002E15D18D
:1011A00023681B681F42F3D1A36B04221343A3637C
:1011B00034230022E254032032E0836B20221343C5
:1011C000836334230022C254012029E0FFF778FD15
:1011D000401BB042DCD9E3E7A16B802292000A43B6
:1011E000A263D968C0221201114213D1A27E002A43
:1011F00010D11A6812070DD59A68520711D45A688F
:101200000C218A435A60A36B0B4A13400432FF320D
:101210001343A363207E00280CD123680C221A609C
:10122000F8BDA36B20221343A363E36B1F3A134360
:10123000E363EFE70020F3E7FEFEFFFF0368186CAF
:10124000704770477047704770B5040003681D68A9
:101250005E686A0701D5720703D42A0727D53207CB
:1012600025D5A26BD20604D4A16B802292000A433A
:10127000A263D968C0221201114212D1A27E002AB3
:101280000FD12A070DD59A6852072DD45A680C2120
:101290008A435A60A36B1F4A13400432FF32134340
:1012A000A3632000FFF7CDFF23680C221A602B06F2
:1012B00001D5330621D4EB0615D5F30613D5A36A61
:1012C000012B03D02368DB68DB0709D5E36B02221F
:1012D0001343E36323680E321A602000FFF7B3FF65
:1012E000236810221A6070BDA36B20221343A363EE
:1012F000E36B1F3A1343E363D3E7A26B80235B02E4
:101300001343A3632000FFF79DFF236880221A6028
:10131000D1E7C046FEFEFFFF30B583B004000023D6
:1013200001933433C35C012B00D18AE034230122C2
:10133000C25403689A68520775D4434A4868904279
:1013400056D09A6A01200D68A84002439A62E36A67
:101350008022520593421ED0012B1CD0022B1AD0A2
:10136000032B18D0042B16D0052B14D0062B12D02B
:10137000072B10D0226850690723034088689842E1
:1013800009D05069072398435061206842698D68ED
:101390002B40134343610B681A00103A022A4CD8C1
:1013A0002A4A1268102B0ED0112B09D080235B041F
:1013B0001343264A13600B68102B07D0002037E038
:1013C0008023DB03F4E780231B04F1E7204B18683C
:1013D0002049FEF7A3FE83001B185B00019302E087
:1013E000019B013B0193019B002BF9D100201FE0E1
:1013F0009A6A01200D68A84082439A620B681A001D
:10140000103A022A1BD8114A1268102B09D0112B4E
:1014100005D0114B13400D4A1360002008E00F4B1C
:10142000F8E70F4BF6E7836B202213438363012019
:1014300034230022E25403B030BD0020F8E700203E
:10144000F6E70220F7E7C046011000000827014038
:101450000400002040420F00FFFFFFFEFFFFBFFF20
:10146000FFFF7FFF70B5002811DB8308134EC033E8
:101470009B009D5903242040C000FF22140084409B
:10148000A54389010A4082402A439A5170BD0F2327
:101490000340083B9B0806339B00094A944663447B
:1014A0005C6803221040C000FC3215008540AC434C
:1014B00089010A40824022435A60E7E700E100E0E8
:1014C00000ED00E0002805DB1F2318401E3B834091
:1014D000014A13607047C04600E100E001388023F4
:1014E0005B0498420FD2094A50600948036A1B0204
:1014F0001B0AC02109060B430362002393600733D4
:101500001360002070470120FCE7C04610E000E0B7
:1015100000ED00E0F0B583B0002357E084685F0081
:101520000326BE40B4432600CC68BC4034438460EC
:10153000446894434A681609012232409A40224383
:10154000426053E0DC080834A400265805321A40F3
:1015500092000F279740BE430F6997403A003243ED
:10156000225057E0032600E00026A64034003C430A
:1015700002329200444E9451444A9468EA43260051
:10158000AE434F68FF0201D52C4326003F4CA660B6
:10159000E468260016404F68BF0201D52C432600A0
:1015A0003A4CE6606468260016404F68BF0301D5D8
:1015B0002C432600354C6660246822404E68F603B2
:1015C00001D52A002243314C226001330C682200ED
:1015D000DA4057D001229A40250015401442F4D039
:1015E00003244E683440013C012C97D903224C68F7
:1015F0002240032A09D0C2685E000324B440A243FB
:1016000014008A68B2402243C26003224C68224020
:10161000022A97D004685E0003221700B740BC433B
:101620004F683A40B24022430260C02292024C68A6
:101630001442CAD0164CA66901221643A661A469B9
:1016400022400192019A9A08941CA4000E4EA759B8
:1016500003241C40A4000F26A640B7439026F6059D
:10166000B04281D00B4EB04208D00B4EB04207D0F2
:101670000A4EB04200D175E7052676E7012674E7E9
:10168000022672E703B0F0BD0000014000040140F3
:10169000001002400004004800080048000C004808
:1016A000426913000B401B04914319438161704749
:1016B0007047000010B5054B5B69184200D110BDA2
:1016C000024B5861FFF7F4FFF9E7C0460004014000
:1016D00030B5036A012293430362036A4268846956
:1016E0007325AC430D682C430225AB438D682B4317
:1016F000144DA84208D0144DA84205D0134DA8425D
:1017000002D0134DA84205D10825AB43CD682B4329
:101710000425AB430B4DA84208D00B4DA84205D081
:101720000A4DA84202D00A4DA84205D1094D2A40CF
:101730004D692A438D692A43426084614A68426345
:10174000036230BD002C01400040014000440140D4
:1017500000480140FFFCFFFF70B5036A194A1340BF
:101760000362036A4268C4697325AC430E6826436A
:10177000154C23408C6824022343144CA04219D0FA
:10178000124CA04208D0124CA04205D0114CA042ED
:1017900002D0114CA04207D1104C14404A691201EA
:1017A00022438C6925012A434260C6614A68C263AC
:1017B000036270BD0A4C1C40CB681B022343094CDA
:1017C0002340DDE7FFFEFFFFFFFDFFFF002C014090
:1017D000004001400044014000480140FFCFFFFFAE
:1017E000FFF7FFFFFFFBFFFF30B5036A134A13400B
:1017F0000362026A4368C469114D2C400D682D02D2
:101800002C43104D15408A6812032A430E4DA842FE
:1018100008D00E4DA84205D00D4DA84202D00D4D66
:10182000A84204D10C4D2B404D69AD012B434360C0
:10183000C4614B680364026230BDC046FFEFFFFF26
:10184000FF8CFFFFFFDFFFFF002C01400040014045
:101850000044014000480140FFBFFFFF30B5036A6C
:10186000046A0125AC4304628469EF35AC4312017C
:1018700022430A24A3430B438261036230BD00006C
:1018800030B5036A1024A34303628469036A054DDB
:101890002C4012032243A024A3430901194382616F
:1018A000016230BDFF0FFFFF8368702293430B433B
:1018B00007210B4383607047704700000368214A8B
:1018C000904206D08022D205904202D01E4A904219
:1018D00003D1702293434A6813431A4A904212D0AC
:1018E0008022D20590420ED0174A90420BD0174A60
:1018F000904208D0164A904205D0164A904202D033
:10190000154A904203D1154A1340CA6813438022F6
:1019100093434A69134303608B68C3620B68836215
:10192000084B984208D00A4B984205D0094B984280
:1019300002D0094B984201D10B6903630123436133
:101940007047C046002C01400004004000200040C9
:10195000004001400044014000480140FFFCFFFFFF
:1019600070B5041E26D03D23C35C002B1CD03D2542
:1019700002236355210001C9FFF7A0FF012346227E
:10198000A354083AA3540132A3540132A3540132A0
:10199000A3540132A3540132A3540132A35401329F
:1019A000A3546355002070BD3C330022C25400F0A4
:1019B00085FADCE70120F6E770B5041E26D03D234A
:1019C000C35C002B1CD03D2502236355210001C9B7
:1019D000FFF774FF01234622A354083AA3540132AF
:1019E000A3540132A3540132A3540132A35401324F
:1019F000A3540132A3540132A3546355002070BD97
:101A00003C330022C254FFF757FFDCE70120F6E722
:101A100070B5036A102293430362036A42688469C3
:101A2000174D2C400D682D0225432024A3438C68BC
:101A300024012343134CA04219D0124CA04208D0D9
:101A4000114CA04205D0114CA04202D0104CA04233
:101A500007D1104C14404A69920022438C69A600B9
:101A60003243426085614A688263036270BD8024AC
:101A7000A3431C00CB681B0123434024A343DCE7A2
:101A8000FF8CFFFF002C014000400140004401405A
:101A900000480140FFF3FFFF70B504000D003C2338
:101AA000C35C012B00D16AE03C230121C154082A08
:101AB00050D01CD8002A38D0042A16D1290000683A
:101AC000FFF7A6FF2268916980231B010B439361F6
:101AD000226893692B490B40936121688B692A69BD
:101AE000120213438B6100201BE0080019E00C2A4E
:101AF00016D129000068FFF777FE2268D16980239C
:101B00001B010B43D3612268D3691E490B40D3618B
:101B10002168CB692A6912021343CB61002000E0DF
:101B200001203C230022E25470BD29000068FFF729
:101B3000CFFD2268936908210B4393612268936962
:101B400004398B4393612268936929690B4393613C
:101B50000020E6E729000068FFF7FEFD2268D36950
:101B600008210B43D3612268D36904398B43D361C5
:101B70002268D36929690B43D3610020D1E7022091
:101B8000D2E7C046FFFBFFFF30B58468034D2C4011
:101B90001B0213430B432343836030BDFF00FFFF51
:101BA00010B504003C23C35C012B00D178E03C233A
:101BB0000122C25401330132C25402689368394889
:101BC000034093600B68602B50D02AD8402B58D02C
:101BD0000CD9502B23D1CA6849682068FFF73EFE14
:101BE00050212068FFF760FE002005E0202B0ED07A
:101BF00009D9302B0BD001203D230122E254013BB7
:101C00000022E25410BD002B01D0102B05D1190089
:101C10002068FFF749FE0020EEE70120ECE70120F5
:101C2000EAE780225201934236D080229201934209
:101C30000DD1CB684A6889682068FFF7A5FF226844
:101C400091688023DB010B4393600020D4E7702B65
:101C500024D1CB684A6889682068FFF795FF22681D
:101C6000936877210B4393600020C5E7CA684968F1
:101C70002068FFF705FE60212068FFF715FE0020B1
:101C8000BAE7CA6849682068FFF7E8FD4021206884
:101C9000FFF70AFE0020AFE70020ADE70120ABE729
:101CA0000220AFE78800FFFF10B51F231940012471
:101CB0008C40036AA3430362036A8A4013430362AE
:101CC00010BD000010B50400002936D13E23C35CCE
:101CD000013B5A1E9341DBB2002B62D1002945D152
:101CE0003E330222E25401222068FFF7DDFF236821
:101CF0002E4A934208D02E4A934205D02D4A934251
:101D000002D02D4A934204D1596C802212020A4318
:101D10005A642368254A934238D08022D2059342E0
:101D200034D0264A934231D0214A93422ED01A68A9
:101D300001210A431A60002034E0042908D0082950
:101D40000DD04123C35C013B5A1E9341DBB2C3E774
:101D50003F23C35C013B5A1E9341DBB2BCE74023E7
:101D6000C35C013B5A1E9341DBB2B5E7042905D0A1
:101D7000082907D041230222E254B4E73F2302227C
:101D8000E254B0E740230222E254ACE7996807220C
:101D90000A40062A07D01A6801210A431A60002067
:101DA00000E0012010BD0020FCE7C046002C0140EF
:101DB0000040014000440140004801400004004050
:101DC00030B53C23C35C012B28D03C230122C254F4
:101DD00001330132C25403685A689C687025AA43D3
:101DE0000D682A435A6003680D4A934209D0802245
:101DF000D205934205D00B4A934202D00A4A93423D
:101E000004D1802294434A6814439C603D230122FC
:101E1000C254013B0022C254002030BD0220FCE726
:101E2000002C0140000400400040014082B00A4BF9
:101E3000996901221143996199690A400092009AB7
:101E4000DA69802149050A43DA61DB690B400193B5
:101E5000019B02B07047C0460010024010B588B028
:101E600004001422002103A800F0BAF82268114BE4
:101E70009A4201D008B010BD0F4B996980208000B4
:101E8000014399619A6902400192019A5A6980213D
:101E900089020A435A615B690B400293029B40230B
:101EA00003933D3B04937138FF3803A9C005FFF746
:101EB00031FBDFE7002401400010024082B00268DD
:101EC000074B9A4201D002B07047064AD1690223FB
:101ED0001943D161D26913400193019BF3E7C046D6
:101EE000000400400010024010B586B00400142227
:101EF000002101A800F074F822680C4B9A4201D02E
:101F000006B010BD0A4A51698020C00201435161E8
:101F1000536903400093009B012301930222029224
:101F2000059301A90348FFF7F5FAE9E7000400402B
:101F30000010024000040048014B18607047C04682
:101F4000040000200D488546FEF71CFE0C480D4994
:101F50000D4A002302E0D458C4500433C4188C4204
:101F6000F9D30A4A0A4C002301E013600432A2426A
:101F7000FBD300F011F8FEF7C7FDFEE700200020BC
:101F800000000020740000203C290008740000209C
:101F900040010020FEE7000070B500260C4D0D4CFE
:101FA000641BA410A64209D1002600F09BFC0A4D38
:101FB0000A4C641BA410A64205D170BDB300EB58B7
:101FC00098470136EEE7B300EB5898470136F2E741
:101FD0003429000834290008342900083829000869
:101FE00003008218934200D1704719700133F9E75A
:101FF0000EB400B50B499CB01DAB02900690079142
:1020000004910948094904CB0591006802A901938C
:1020100000F070F80023029A13701CB008BC03B0E3
:102020001847C046FFFFFF7F100000200802FFFF97
:10203000F0B58E6885B007000C00039201939E42B4
:102040003CD890238A89DB001A4234D0096923687E
:1020500060695B1A029303234343DD0FED18019B74
:10206000029801331B186D10AB4200D91D005305B7
:1020700032D52900380000F053FB061E09D10C238D
:102080003B6040230120A28940421343A38105B055
:10209000F0BD029A216900F0BAFAA389144A1A40E5
:1020A00080231343A381029B2661F6182660656195
:1020B000019EED1AA560019B9E4200D9019E32004F
:1020C0000399206800F0ACFAA36800209B1BA36072
:1020D00023689E192660DAE72A00380000F096FB94
:1020E000061EE0D13800216900F0AEFAC7E7C0460D
:1020F0007FFBFFFFF0B5A1B003901D008B890F009F
:1021000016001B0611D50B69002B0ED1402100F0E3
:1021100007FB38603861002805D10C23039A013889
:10212000136021B0F0BD40237B61002308AC6361E4
:10213000203363761033A376079535002B78002B78
:1021400001D0252B47D1AB1B0593B5420CD03200F3
:1021500039000398FFF76CFF431C00D1AEE06269C1
:10216000059B9446634463612B78002B00D1A5E066
:10217000012200235242626004A9543252186E1C9C
:102180002360E360A3601370A3650522317854488F
:1021900000F032FA751C00281FD12268D30604D53E
:1021A000532304A95B1820211970130704D5532366
:1021B00004A95B182B21197033782A2B16D035000F
:1021C00000210A20E3682A786E1C303A092A4ED989
:1021D000002911D117E00135B0E7414B2268C01A40
:1021E0000123834013432E002360CEE7079B191D74
:1021F0001B680791002B01DB0B9304E05B42E3605B
:102200000223134323602B782E2B0AD16B782A2BC1
:1022100035D1079B02351A1D1B680792002B2BDB5B
:102220000993304E03223000297800F0E5F90028A8
:1022300006D04023801B834022680135134323606E
:102240002978062228486E1C217600F0D5F900284E
:102250003CD0264B002B25D10722079B0733934305
:10226000083307936369049A9B18636165E74343E6
:10227000350001219B18A6E701235B42D0E700232C
:102280000A201A000135636029786E1C303909294B
:1022900003D9002BC5D00992C3E74243350001237F
:1022A0005218F1E707AB00933A002100104B039856
:1022B00000E000BF0490049B0133D3D1BB890D988B
:1022C0005B0600D42DE7012040422AE707AB0093CC
:1022D0003A002100064B039800F07CF8EAE7C0467C
:1022E000FF2800080529000809290008000000004F
:1022F00031200008F7B5150001938A680B690C00BE
:102300000090934200DA130022002B6043321278CF
:10231000002A01D001332B6023689B0602D52B686D
:1023200002332B602268062317001F401A4227D071
:10233000230043331B785A1E93412268920630D4FF
:10234000220001990098089E4332B047431C25D0D3
:10235000062320682A68E16800250340042B03D186
:102360008D1AEB43DB171D40A3682269934201DD00
:102370009B1AED180027BD4220D1002010E0013744
:10238000E3682A689B1ABB42D2DD2200012301992F
:102390000098089E1932B047431CF0D101204042FA
:1023A000FEBD3020E1184331087021005A1C453130
:1023B0000978A218433202331170C1E722000123C9
:1023C00001990098089E1A32B047431CE6D00137A5
:1023D000D1E70000F0B58BB006920A0043320793B4
:1023E000059004920A7E0C00109B782A07D8622A76
:1023F00009D8002A00D1C1E0582A00D18CE026007B
:102400004236327022E0100063381528F7D8FDF705
:102410007BFE16001F00F6FFF6FFF6FFF6FF1F001B
:10242000F6FFF6FFF6FFF6FFA80036009A00F6FF6B
:10243000F6FFB900F6FF3600F6FFF6FF9E00260015
:102440001A684236111D1960136833700123A7E022
:10245000086819680A1D05060BD50D681A60002D5D
:1024600003DA2D23049A6D421370614B0A270393FC
:102470001BE00D681A604106F1D52DB2EFE70D683B
:102480001968081D18602E0601D50D6803E06D0659
:10249000FBD50D68ADB2564B082703936F2A00D0C9
:1024A00002372300002243331A706368A360002BB5
:1024B00003DB0422216891432160002D02D1049E98
:1024C000002B0CD0049E28003900FDF7ADFE039BC5
:1024D000013E5B5C33702B0005009F42F3D9082F4F
:1024E00009D12368DB0706D563682269934202DCC1
:1024F0003023013E3370049B9B1B2361079B21000B
:1025000000930598069B09AAFFF7F4FE431C4CD1E3
:10251000012040420BB0F0BD45310A70344A0392AD
:102520001A68216820CA1A60080616D5CB0702D59A
:102530002023194321601027002DB2D120232268C7
:102540009A432260ADE7202209680A4322602200F4
:10255000782145321170274AE1E74806E6D5ADB249
:10256000E4E71A680D68101D4969186013682E06A3
:1025700001D5196002E06D06FBD519800023049E89
:102580002361BBE71A68111D19601668002130002D
:10259000626800F031F8002801D0801B6060636839
:1025A00023610023049A1370A8E723693200069977
:1025B0000598079DA847431CAAD023689B0715D4FC
:1025C000099BE0689842A5DA1800A3E722000123DE
:1025D00006990598079E1932B047431C98D00135DB
:1025E000E368099A9B1AAB42F0DCE9E70025F7E7BC
:1025F0001029000821290008C9B28218904201D18F
:102600000020704703788B42FBD00130F6E70023AF
:1026100010B59A4200D110BDCC5CC4540133F8E728
:1026200010B5884202D98B18984203D3002307E0E3
:102630008B5C8354013AFBD210BDCC5CC454013393
:102640009A42FAD1F8E7000070B50500002910D0D1
:102650000C1F2368002B00DAE418280000F018F99A
:102660001D4A1368002B05D163601460280000F038
:1026700017F970BDA34208D9216860188342F3D1CD
:1026800018685B6841182160EEE71A005B68002B50
:1026900001D0A342F9D911685018A0420BD120688B
:1026A0000918501811608342E0D118685B6841181E
:1026B00011605360DAE7A04202D90C232B60D5E702
:1026C00021686018834203D118685B684118216053
:1026D00063605460CAE7C0462C01002070B50F4EFD
:1026E0000D0031680400002902D100F0BFF830600D
:1026F0002900200000F0BAF8431C0AD00323C51CAF
:102700009D43A84207D0291A200000F0AFF8431CCF
:1027100001D101256D42280070BDC0463001002066
:10272000F7B50322CB1C9343083306001F000C2B84
:1027300032D20C27B94231D8300000F0A9F8324D1E
:102740002B681C00002C2ED139003000FFF7C6FF8B
:102750000400431C1ED12C682500002D4AD123689B
:102760002900E3183000019300F080F8019B8342B8
:1027700043D123680337FF1A03239F4308370C2FE5
:1027800000D20C2739003000FFF7A8FF431C34D0DB
:102790002368DF19276013E0002BCBDA0C23002518
:1027A00033602800FEBD2268D11B20D40B2917D925
:1027B000E2192760A34211D12A6063681160536057
:1027C0003000250000F06CF807220B35231D9543DF
:1027D000EA1A9D42E5D05B1BA350E2E75A60ECE7A2
:1027E0006268A34201D12A60EAE75A60E8E7230061
:1027F0006468A7E72C006D68AFE70C2330003360F6
:1028000000F04EF8CDE7C0462C010020F7B50700D8
:102810000E001400002905D11100FFF781FF05000B
:102820002800FEBD002A03D1FFF70EFF2500F7E7C1
:1028300000F03EF80190844203D835004308A342DB
:10284000EED321003800FFF76BFF051EE8D0019B97
:1028500022009C4200D91A0031002800FFF7D7FE61
:1028600031003800FFF7F0FEDAE70000002370B512
:10287000064D040008002B6000F024F8431C03D12F
:102880002B68002B00D0236070BDC04634010020AF
:1028900010B5024800F014F810BDC0463801002001
:1028A00010B5024800F00DF810BDC04638010020F8
:1028B0000B1F1B68181F002B01DA0B58C01870473C
:1028C00070477047054A03001168002901D1044987
:1028D00011601068C31813607047C0463C010020A7
:1028E00040010020F8B5C046F8BC08BC9E467047C1
:0C28F000F8B5C046F8BC08BC9E46704716
:1028FC00256400232D302B2000686C4C0065666726
:10290C004546470030313233343536373839414259
:10291C00434445460030313233343536373839612B
:08292C006263646566000000AF
:04293400E9000008AE
:04293800C1000008D2
:10293C00F401000000127A00010000000400000005
:10294C001400002000000000000000000000000047
:10295C00000000000000000000000000000000006B
:10296C00000000000000000000000000000000005B
:10297C00000000000000000000000000000000004B
:10298C00000000000000000000000000000000003B
:10299C00000000000000000000000000000000002B
:0429AC000000000027
:0400000508001F458B
:00000001FF
